{
  "_format": "hh-sol-artifact-1",
  "contractName": "MoneyMachineNFT",
  "sourceName": "contracts/MoneyMachineNFT.sol",
  "abi": [
    {
      "inputs": [],
      "stateMutability": "nonpayable",
      "type": "constructor"
    },
    {
      "inputs": [],
      "name": "ERC721EnumerableForbiddenBatchMint",
      "type": "error"
    },
    {
      "inputs": [
        {
          "internalType": "address",
          "name": "sender",
          "type": "address"
        },
        {
          "internalType": "uint256",
          "name": "tokenId",
          "type": "uint256"
        },
        {
          "internalType": "address",
          "name": "owner",
          "type": "address"
        }
      ],
      "name": "ERC721IncorrectOwner",
      "type": "error"
    },
    {
      "inputs": [
        {
          "internalType": "address",
          "name": "operator",
          "type": "address"
        },
        {
          "internalType": "uint256",
          "name": "tokenId",
          "type": "uint256"
        }
      ],
      "name": "ERC721InsufficientApproval",
      "type": "error"
    },
    {
      "inputs": [
        {
          "internalType": "address",
          "name": "approver",
          "type": "address"
        }
      ],
      "name": "ERC721InvalidApprover",
      "type": "error"
    },
    {
      "inputs": [
        {
          "internalType": "address",
          "name": "operator",
          "type": "address"
        }
      ],
      "name": "ERC721InvalidOperator",
      "type": "error"
    },
    {
      "inputs": [
        {
          "internalType": "address",
          "name": "owner",
          "type": "address"
        }
      ],
      "name": "ERC721InvalidOwner",
      "type": "error"
    },
    {
      "inputs": [
        {
          "internalType": "address",
          "name": "receiver",
          "type": "address"
        }
      ],
      "name": "ERC721InvalidReceiver",
      "type": "error"
    },
    {
      "inputs": [
        {
          "internalType": "address",
          "name": "sender",
          "type": "address"
        }
      ],
      "name": "ERC721InvalidSender",
      "type": "error"
    },
    {
      "inputs": [
        {
          "internalType": "uint256",
          "name": "tokenId",
          "type": "uint256"
        }
      ],
      "name": "ERC721NonexistentToken",
      "type": "error"
    },
    {
      "inputs": [
        {
          "internalType": "address",
          "name": "owner",
          "type": "address"
        },
        {
          "internalType": "uint256",
          "name": "index",
          "type": "uint256"
        }
      ],
      "name": "ERC721OutOfBoundsIndex",
      "type": "error"
    },
    {
      "inputs": [
        {
          "internalType": "address",
          "name": "owner",
          "type": "address"
        }
      ],
      "name": "OwnableInvalidOwner",
      "type": "error"
    },
    {
      "inputs": [
        {
          "internalType": "address",
          "name": "account",
          "type": "address"
        }
      ],
      "name": "OwnableUnauthorizedAccount",
      "type": "error"
    },
    {
      "anonymous": false,
      "inputs": [
        {
          "indexed": true,
          "internalType": "address",
          "name": "owner",
          "type": "address"
        },
        {
          "indexed": true,
          "internalType": "address",
          "name": "approved",
          "type": "address"
        },
        {
          "indexed": true,
          "internalType": "uint256",
          "name": "tokenId",
          "type": "uint256"
        }
      ],
      "name": "Approval",
      "type": "event"
    },
    {
      "anonymous": false,
      "inputs": [
        {
          "indexed": true,
          "internalType": "address",
          "name": "owner",
          "type": "address"
        },
        {
          "indexed": true,
          "internalType": "address",
          "name": "operator",
          "type": "address"
        },
        {
          "indexed": false,
          "internalType": "bool",
          "name": "approved",
          "type": "bool"
        }
      ],
      "name": "ApprovalForAll",
      "type": "event"
    },
    {
      "anonymous": false,
      "inputs": [
        {
          "indexed": false,
          "internalType": "string",
          "name": "newBaseURI",
          "type": "string"
        }
      ],
      "name": "BaseURIUpdated",
      "type": "event"
    },
    {
      "anonymous": false,
      "inputs": [
        {
          "indexed": false,
          "internalType": "uint256",
          "name": "_fromTokenId",
          "type": "uint256"
        },
        {
          "indexed": false,
          "internalType": "uint256",
          "name": "_toTokenId",
          "type": "uint256"
        }
      ],
      "name": "BatchMetadataUpdate",
      "type": "event"
    },
    {
      "anonymous": false,
      "inputs": [
        {
          "indexed": false,
          "internalType": "uint256",
          "name": "_tokenId",
          "type": "uint256"
        }
      ],
      "name": "MetadataUpdate",
      "type": "event"
    },
    {
      "anonymous": false,
      "inputs": [
        {
          "indexed": false,
          "internalType": "uint256",
          "name": "newPrice",
          "type": "uint256"
        }
      ],
      "name": "MintPriceUpdated",
      "type": "event"
    },
    {
      "anonymous": false,
      "inputs": [
        {
          "indexed": true,
          "internalType": "uint256",
          "name": "tokenId",
          "type": "uint256"
        },
        {
          "indexed": true,
          "internalType": "address",
          "name": "owner",
          "type": "address"
        }
      ],
      "name": "NFTBurned",
      "type": "event"
    },
    {
      "anonymous": false,
      "inputs": [
        {
          "indexed": true,
          "internalType": "uint256",
          "name": "tokenId",
          "type": "uint256"
        },
        {
          "indexed": true,
          "internalType": "address",
          "name": "creator",
          "type": "address"
        },
        {
          "indexed": false,
          "internalType": "string",
          "name": "tokenURI",
          "type": "string"
        }
      ],
      "name": "NFTMinted",
      "type": "event"
    },
    {
      "anonymous": false,
      "inputs": [
        {
          "indexed": true,
          "internalType": "address",
          "name": "previousOwner",
          "type": "address"
        },
        {
          "indexed": true,
          "internalType": "address",
          "name": "newOwner",
          "type": "address"
        }
      ],
      "name": "OwnershipTransferred",
      "type": "event"
    },
    {
      "anonymous": false,
      "inputs": [
        {
          "indexed": true,
          "internalType": "address",
          "name": "from",
          "type": "address"
        },
        {
          "indexed": true,
          "internalType": "address",
          "name": "to",
          "type": "address"
        },
        {
          "indexed": true,
          "internalType": "uint256",
          "name": "tokenId",
          "type": "uint256"
        }
      ],
      "name": "Transfer",
      "type": "event"
    },
    {
      "inputs": [
        {
          "internalType": "address",
          "name": "to",
          "type": "address"
        },
        {
          "internalType": "uint256",
          "name": "tokenId",
          "type": "uint256"
        }
      ],
      "name": "approve",
      "outputs": [],
      "stateMutability": "nonpayable",
      "type": "function"
    },
    {
      "inputs": [
        {
          "internalType": "address",
          "name": "owner",
          "type": "address"
        }
      ],
      "name": "balanceOf",
      "outputs": [
        {
          "internalType": "uint256",
          "name": "",
          "type": "uint256"
        }
      ],
      "stateMutability": "view",
      "type": "function"
    },
    {
      "inputs": [
        {
          "internalType": "address",
          "name": "recipient",
          "type": "address"
        },
        {
          "internalType": "string[]",
          "name": "tokenURIs",
          "type": "string[]"
        }
      ],
      "name": "batchMint",
      "outputs": [
        {
          "internalType": "uint256[]",
          "name": "",
          "type": "uint256[]"
        }
      ],
      "stateMutability": "payable",
      "type": "function"
    },
    {
      "inputs": [
        {
          "internalType": "uint256",
          "name": "tokenId",
          "type": "uint256"
        }
      ],
      "name": "burn",
      "outputs": [],
      "stateMutability": "nonpayable",
      "type": "function"
    },
    {
      "inputs": [
        {
          "internalType": "uint256",
          "name": "",
          "type": "uint256"
        }
      ],
      "name": "creators",
      "outputs": [
        {
          "internalType": "address",
          "name": "",
          "type": "address"
        }
      ],
      "stateMutability": "view",
      "type": "function"
    },
    {
      "inputs": [],
      "name": "defaultRoyalty",
      "outputs": [
        {
          "internalType": "uint256",
          "name": "",
          "type": "uint256"
        }
      ],
      "stateMutability": "view",
      "type": "function"
    },
    {
      "inputs": [
        {
          "internalType": "uint256",
          "name": "tokenId",
          "type": "uint256"
        }
      ],
      "name": "getApproved",
      "outputs": [
        {
          "internalType": "address",
          "name": "",
          "type": "address"
        }
      ],
      "stateMutability": "view",
      "type": "function"
    },
    {
      "inputs": [
        {
          "internalType": "address",
          "name": "owner",
          "type": "address"
        },
        {
          "internalType": "address",
          "name": "operator",
          "type": "address"
        }
      ],
      "name": "isApprovedForAll",
      "outputs": [
        {
          "internalType": "bool",
          "name": "",
          "type": "bool"
        }
      ],
      "stateMutability": "view",
      "type": "function"
    },
    {
      "inputs": [],
      "name": "maxSupply",
      "outputs": [
        {
          "internalType": "uint256",
          "name": "",
          "type": "uint256"
        }
      ],
      "stateMutability": "view",
      "type": "function"
    },
    {
      "inputs": [
        {
          "internalType": "address",
          "name": "recipient",
          "type": "address"
        },
        {
          "internalType": "string",
          "name": "tokenURI_",
          "type": "string"
        }
      ],
      "name": "mintNFT",
      "outputs": [
        {
          "internalType": "uint256",
          "name": "",
          "type": "uint256"
        }
      ],
      "stateMutability": "payable",
      "type": "function"
    },
    {
      "inputs": [],
      "name": "mintPrice",
      "outputs": [
        {
          "internalType": "uint256",
          "name": "",
          "type": "uint256"
        }
      ],
      "stateMutability": "view",
      "type": "function"
    },
    {
      "inputs": [],
      "name": "name",
      "outputs": [
        {
          "internalType": "string",
          "name": "",
          "type": "string"
        }
      ],
      "stateMutability": "view",
      "type": "function"
    },
    {
      "inputs": [],
      "name": "owner",
      "outputs": [
        {
          "internalType": "address",
          "name": "",
          "type": "address"
        }
      ],
      "stateMutability": "view",
      "type": "function"
    },
    {
      "inputs": [
        {
          "internalType": "address",
          "name": "recipient",
          "type": "address"
        },
        {
          "internalType": "string",
          "name": "tokenURI_",
          "type": "string"
        }
      ],
      "name": "ownerMint",
      "outputs": [
        {
          "internalType": "uint256",
          "name": "",
          "type": "uint256"
        }
      ],
      "stateMutability": "nonpayable",
      "type": "function"
    },
    {
      "inputs": [
        {
          "internalType": "uint256",
          "name": "tokenId",
          "type": "uint256"
        }
      ],
      "name": "ownerOf",
      "outputs": [
        {
          "internalType": "address",
          "name": "",
          "type": "address"
        }
      ],
      "stateMutability": "view",
      "type": "function"
    },
    {
      "inputs": [],
      "name": "renounceOwnership",
      "outputs": [],
      "stateMutability": "nonpayable",
      "type": "function"
    },
    {
      "inputs": [
        {
          "internalType": "uint256",
          "name": "",
          "type": "uint256"
        }
      ],
      "name": "royalties",
      "outputs": [
        {
          "internalType": "uint256",
          "name": "",
          "type": "uint256"
        }
      ],
      "stateMutability": "view",
      "type": "function"
    },
    {
      "inputs": [
        {
          "internalType": "uint256",
          "name": "tokenId",
          "type": "uint256"
        },
        {
          "internalType": "uint256",
          "name": "salePrice",
          "type": "uint256"
        }
      ],
      "name": "royaltyInfo",
      "outputs": [
        {
          "internalType": "address",
          "name": "",
          "type": "address"
        },
        {
          "internalType": "uint256",
          "name": "",
          "type": "uint256"
        }
      ],
      "stateMutability": "view",
      "type": "function"
    },
    {
      "inputs": [
        {
          "internalType": "address",
          "name": "from",
          "type": "address"
        },
        {
          "internalType": "address",
          "name": "to",
          "type": "address"
        },
        {
          "internalType": "uint256",
          "name": "tokenId",
          "type": "uint256"
        }
      ],
      "name": "safeTransferFrom",
      "outputs": [],
      "stateMutability": "nonpayable",
      "type": "function"
    },
    {
      "inputs": [
        {
          "internalType": "address",
          "name": "from",
          "type": "address"
        },
        {
          "internalType": "address",
          "name": "to",
          "type": "address"
        },
        {
          "internalType": "uint256",
          "name": "tokenId",
          "type": "uint256"
        },
        {
          "internalType": "bytes",
          "name": "data",
          "type": "bytes"
        }
      ],
      "name": "safeTransferFrom",
      "outputs": [],
      "stateMutability": "nonpayable",
      "type": "function"
    },
    {
      "inputs": [
        {
          "internalType": "address",
          "name": "operator",
          "type": "address"
        },
        {
          "internalType": "bool",
          "name": "approved",
          "type": "bool"
        }
      ],
      "name": "setApprovalForAll",
      "outputs": [],
      "stateMutability": "nonpayable",
      "type": "function"
    },
    {
      "inputs": [
        {
          "internalType": "string",
          "name": "newBaseURI",
          "type": "string"
        }
      ],
      "name": "setBaseURI",
      "outputs": [],
      "stateMutability": "nonpayable",
      "type": "function"
    },
    {
      "inputs": [
        {
          "internalType": "uint256",
          "name": "newRoyalty",
          "type": "uint256"
        }
      ],
      "name": "setDefaultRoyalty",
      "outputs": [],
      "stateMutability": "nonpayable",
      "type": "function"
    },
    {
      "inputs": [
        {
          "internalType": "uint256",
          "name": "newMaxSupply",
          "type": "uint256"
        }
      ],
      "name": "setMaxSupply",
      "outputs": [],
      "stateMutability": "nonpayable",
      "type": "function"
    },
    {
      "inputs": [
        {
          "internalType": "uint256",
          "name": "newPrice",
          "type": "uint256"
        }
      ],
      "name": "setMintPrice",
      "outputs": [],
      "stateMutability": "nonpayable",
      "type": "function"
    },
    {
      "inputs": [
        {
          "internalType": "bytes4",
          "name": "interfaceId",
          "type": "bytes4"
        }
      ],
      "name": "supportsInterface",
      "outputs": [
        {
          "internalType": "bool",
          "name": "",
          "type": "bool"
        }
      ],
      "stateMutability": "view",
      "type": "function"
    },
    {
      "inputs": [],
      "name": "symbol",
      "outputs": [
        {
          "internalType": "string",
          "name": "",
          "type": "string"
        }
      ],
      "stateMutability": "view",
      "type": "function"
    },
    {
      "inputs": [
        {
          "internalType": "uint256",
          "name": "index",
          "type": "uint256"
        }
      ],
      "name": "tokenByIndex",
      "outputs": [
        {
          "internalType": "uint256",
          "name": "",
          "type": "uint256"
        }
      ],
      "stateMutability": "view",
      "type": "function"
    },
    {
      "inputs": [
        {
          "internalType": "address",
          "name": "owner",
          "type": "address"
        },
        {
          "internalType": "uint256",
          "name": "index",
          "type": "uint256"
        }
      ],
      "name": "tokenOfOwnerByIndex",
      "outputs": [
        {
          "internalType": "uint256",
          "name": "",
          "type": "uint256"
        }
      ],
      "stateMutability": "view",
      "type": "function"
    },
    {
      "inputs": [
        {
          "internalType": "uint256",
          "name": "tokenId",
          "type": "uint256"
        }
      ],
      "name": "tokenURI",
      "outputs": [
        {
          "internalType": "string",
          "name": "",
          "type": "string"
        }
      ],
      "stateMutability": "view",
      "type": "function"
    },
    {
      "inputs": [],
      "name": "totalMinted",
      "outputs": [
        {
          "internalType": "uint256",
          "name": "",
          "type": "uint256"
        }
      ],
      "stateMutability": "view",
      "type": "function"
    },
    {
      "inputs": [],
      "name": "totalSupply",
      "outputs": [
        {
          "internalType": "uint256",
          "name": "",
          "type": "uint256"
        }
      ],
      "stateMutability": "view",
      "type": "function"
    },
    {
      "inputs": [
        {
          "internalType": "address",
          "name": "from",
          "type": "address"
        },
        {
          "internalType": "address",
          "name": "to",
          "type": "address"
        },
        {
          "internalType": "uint256",
          "name": "tokenId",
          "type": "uint256"
        }
      ],
      "name": "transferFrom",
      "outputs": [],
      "stateMutability": "nonpayable",
      "type": "function"
    },
    {
      "inputs": [
        {
          "internalType": "address",
          "name": "newOwner",
          "type": "address"
        }
      ],
      "name": "transferOwnership",
      "outputs": [],
      "stateMutability": "nonpayable",
      "type": "function"
    },
    {
      "inputs": [],
      "name": "withdraw",
      "outputs": [],
      "stateMutability": "nonpayable",
      "type": "function"
    }
  ],
  "bytecode": "0x608060405266038d7ea4c68000600d55612710600e5560fa6012553480156200002757600080fd5b50336040518060400160405280601081526020016f135bdb995e535858da1a5b994813919560821b81525060405180604001604052806005815260200164135353919560da1b8152508160009081620000819190620001f9565b506001620000908282620001f9565b5050506001600160a01b038116620000c257604051631e4fbdf760e01b81526000600482015260240160405180910390fd5b620000cd8162000102565b50604080518082019091526007815266697066733a2f2f60c81b6020820152600f90620000fb9082620001f9565b50620002c5565b600b80546001600160a01b038381166001600160a01b0319831681179093556040519116919082907f8be0079c531659141344cd1fd0a4f28419497f9722a3daafe3b4186f6b6457e090600090a35050565b634e487b7160e01b600052604160045260246000fd5b600181811c908216806200017f57607f821691505b602082108103620001a057634e487b7160e01b600052602260045260246000fd5b50919050565b601f821115620001f457600081815260208120601f850160051c81016020861015620001cf5750805b601f850160051c820191505b81811015620001f057828155600101620001db565b5050505b505050565b81516001600160401b0381111562000215576200021562000154565b6200022d816200022684546200016a565b84620001a6565b602080601f8311600181146200026557600084156200024c5750858301515b600019600386901b1c1916600185901b178555620001f0565b600085815260208120601f198616915b82811015620002965788860151825594840194600190910190840162000275565b5085821015620002b55787850151600019600388901b60f8161c191681555b5050505050600190811b01905550565b6123b580620002d56000396000f3fe6080604052600436106102045760003560e01c80636f8b44b011610118578063b88d4fde116100a0578063e985e9c51161006f578063e985e9c5146105ef578063eacabe141461060f578063f2f18baa14610622578063f2fde38b14610642578063f4a0a5281461066257600080fd5b8063b88d4fde14610563578063c87b56dd14610583578063cd53d08e146105a3578063d5abeb01146105d957600080fd5b80637f77f574116100e75780637f77f574146104ce5780638da5cb5b146104fb57806395d89b4114610519578063a22cb4651461052e578063a2309ff81461054e57600080fd5b80636f8b44b01461046357806370a0823114610483578063715018a6146104a35780637885fdc7146104b857600080fd5b80632f745c591161019b57806342966c681161016a57806342966c68146103cd5780634f6ccce7146103ed57806355f804b31461040d5780636352211e1461042d5780636817c76c1461044d57600080fd5b80632f745c59146103585780633ccfd60b1461037857806341d5b8031461038d57806342842e0e146103ad57600080fd5b80630caceeb6116101d75780630caceeb6146102ba57806318160ddd146102da57806323b872dd146102f95780632a55205a1461031957600080fd5b806301ffc9a71461020957806306fdde031461023e578063081812fc14610260578063095ea7b314610298575b600080fd5b34801561021557600080fd5b50610229610224366004611c5d565b610682565b60405190151581526020015b60405180910390f35b34801561024a57600080fd5b50610253610693565b6040516102359190611cca565b34801561026c57600080fd5b5061028061027b366004611cdd565b610725565b6040516001600160a01b039091168152602001610235565b3480156102a457600080fd5b506102b86102b3366004611d12565b61074e565b005b3480156102c657600080fd5b506102b86102d5366004611cdd565b61075d565b3480156102e657600080fd5b506009545b604051908152602001610235565b34801561030557600080fd5b506102b8610314366004611d3c565b6107c1565b34801561032557600080fd5b50610339610334366004611d78565b61084c565b604080516001600160a01b039093168352602083019190915201610235565b34801561036457600080fd5b506102eb610373366004611d12565b610899565b34801561038457600080fd5b506102b86108fe565b34801561039957600080fd5b506102eb6103a8366004611e59565b610987565b3480156103b957600080fd5b506102b86103c8366004611d3c565b610a83565b3480156103d957600080fd5b506102b86103e8366004611cdd565b610aa3565b3480156103f957600080fd5b506102eb610408366004611cdd565b610b2e565b34801561041957600080fd5b506102b8610428366004611ea7565b610b87565b34801561043957600080fd5b50610280610448366004611cdd565b610bd6565b34801561045957600080fd5b506102eb600d5481565b34801561046f57600080fd5b506102b861047e366004611cdd565b610be1565b34801561048f57600080fd5b506102eb61049e366004611edc565b610c49565b3480156104af57600080fd5b506102b8610c91565b3480156104c457600080fd5b506102eb60125481565b3480156104da57600080fd5b506102eb6104e9366004611cdd565b60116020526000908152604090205481565b34801561050757600080fd5b50600b546001600160a01b0316610280565b34801561052557600080fd5b50610253610ca5565b34801561053a57600080fd5b506102b8610549366004611ef7565b610cb4565b34801561055a57600080fd5b50600c546102eb565b34801561056f57600080fd5b506102b861057e366004611f33565b610cbf565b34801561058f57600080fd5b5061025361059e366004611cdd565b610cd7565b3480156105af57600080fd5b506102806105be366004611cdd565b6010602052600090815260409020546001600160a01b031681565b3480156105e557600080fd5b506102eb600e5481565b3480156105fb57600080fd5b5061022961060a366004611faf565b610ce2565b6102eb61061d366004611e59565b610d10565b610635610630366004611fe2565b610d5b565b60405161023591906120b8565b34801561064e57600080fd5b506102b861065d366004611edc565b610f7b565b34801561066e57600080fd5b506102b861067d366004611cdd565b610fb9565b600061068d82610ff6565b92915050565b6060600080546106a2906120fc565b80601f01602080910402602001604051908101604052809291908181526020018280546106ce906120fc565b801561071b5780601f106106f05761010080835404028352916020019161071b565b820191906000526020600020905b8154815290600101906020018083116106fe57829003601f168201915b5050505050905090565b60006107308261101b565b506000828152600460205260409020546001600160a01b031661068d565b610759828233611054565b5050565b610765611061565b6103e88111156107bc5760405162461bcd60e51b815260206004820152601960248201527f526f79616c74792063616e6e6f7420657863656564203130250000000000000060448201526064015b60405180910390fd5b601255565b6001600160a01b0382166107eb57604051633250574960e11b8152600060048201526024016107b3565b60006107f883833361108e565b9050836001600160a01b0316816001600160a01b031614610846576040516364283d7b60e01b81526001600160a01b03808616600483015260248201849052821660448201526064016107b3565b50505050565b600082815260106020908152604080832054601190925282205482916001600160a01b031690829061271090610882908761214c565b61088c9190612163565b9196919550909350505050565b60006108a483610c49565b82106108d55760405163295f44f760e21b81526001600160a01b0384166004820152602481018390526044016107b3565b506001600160a01b03919091166000908152600760209081526040808320938352929052205490565b610906611061565b478061094d5760405162461bcd60e51b81526020600482015260166024820152754e6f2062616c616e636520746f20776974686472617760501b60448201526064016107b3565b600b546040516001600160a01b039091169082156108fc029083906000818181858888f19350505050158015610759573d6000803e3d6000fd5b6000610991611061565b600e5415806109a35750600e54600c54105b6109e45760405162461bcd60e51b815260206004820152601260248201527113585e081cdd5c1c1b1e481c995858da195960721b60448201526064016107b3565b600c80549060006109f483612185565b9091555050600c54610a0684826110a3565b610a1081846110bd565b600081815260106020908152604080832080546001600160a01b03191633908117909155601254601190935292819020919091555182907f06becd955c918828f6e985541acbf49cc842c9e9bd569fffc7698e721ef1357590610a74908790611cca565b60405180910390a39392505050565b610a9e83838360405180602001604052806000815250610cbf565b505050565b33610aad82610bd6565b6001600160a01b031614610af55760405162461bcd60e51b815260206004820152600f60248201526e2737ba103a37b5b2b71037bbb732b960891b60448201526064016107b3565b610afe8161110d565b604051339082907f8f0a80450bfbfadc6d05658c9dc494e43beb79be53b44adbb146c6d5040f877090600090a350565b6000610b3960095490565b8210610b625760405163295f44f760e21b815260006004820152602481018390526044016107b3565b60098281548110610b7557610b7561219e565b90600052602060002001549050919050565b610b8f611061565b600f610b9b82826121fa565b507f6741b2fc379fad678116fe3d4d4b9a1a184ab53ba36b86ad0fa66340b1ab41ad81604051610bcb9190611cca565b60405180910390a150565b600061068d8261101b565b610be9611061565b801580610bf85750600c548110155b610c445760405162461bcd60e51b815260206004820152601f60248201527f43616e6e6f74207365742062656c6f772063757272656e7420737570706c790060448201526064016107b3565b600e55565b60006001600160a01b038216610c75576040516322718ad960e21b8152600060048201526024016107b3565b506001600160a01b031660009081526003602052604090205490565b610c99611061565b610ca36000611148565b565b6060600180546106a2906120fc565b61075933838361119a565b610cca8484846107c1565b6108463385858585611239565b606061068d82611364565b6001600160a01b03918216600090815260056020908152604080832093909416825291909152205460ff1690565b6000600d543410156109915760405162461bcd60e51b8152602060048201526014602482015273125b9cdd59999a58da595b9d081c185e5b595b9d60621b60448201526064016107b3565b60608151600d54610d6c919061214c565b341015610db25760405162461bcd60e51b8152602060048201526014602482015273125b9cdd59999a58da595b9d081c185e5b595b9d60621b60448201526064016107b3565b600e541580610dd15750600e548251600c54610dce91906122ba565b11155b610e1d5760405162461bcd60e51b815260206004820152601760248201527f576f756c6420657863656564206d617820737570706c7900000000000000000060448201526064016107b3565b6000825167ffffffffffffffff811115610e3957610e39611d9a565b604051908082528060200260200182016040528015610e62578160200160208202803683370190505b50905060005b8351811015610f7357600c8054906000610e8183612185565b9091555050600c54610e9386826110a3565b610eb681868481518110610ea957610ea961219e565b60200260200101516110bd565b600081815260106020908152604080832080546001600160a01b0319163317905560125460119092529091205582518190849084908110610ef957610ef961219e565b602002602001018181525050336001600160a01b0316817f06becd955c918828f6e985541acbf49cc842c9e9bd569fffc7698e721ef13575878581518110610f4357610f4361219e565b6020026020010151604051610f589190611cca565b60405180910390a35080610f6b81612185565b915050610e68565b509392505050565b610f83611061565b6001600160a01b038116610fad57604051631e4fbdf760e01b8152600060048201526024016107b3565b610fb681611148565b50565b610fc1611061565b600d8190556040518181527f525b762709cc2a983aec5ccdfd807a061f993c91090b5bcd7da92ca254976aaa90602001610bcb565b60006001600160e01b0319821663780e9d6360e01b148061068d575061068d82611460565b6000818152600260205260408120546001600160a01b03168061068d57604051637e27328960e01b8152600481018490526024016107b3565b610a9e8383836001611485565b600b546001600160a01b03163314610ca35760405163118cdaa760e01b81523360048201526024016107b3565b600061109b84848461158b565b949350505050565b610759828260405180602001604052806000815250611658565b60008281526006602052604090206110d582826121fa565b506040518281527ff8e1a15aba9398e019f0b49df1a4fde98ee17ae345cb5f6b5e2c27f5033e8ce79060200160405180910390a15050565b600061111c600083600061108e565b90506001600160a01b03811661075957604051637e27328960e01b8152600481018390526024016107b3565b600b80546001600160a01b038381166001600160a01b0319831681179093556040519116919082907f8be0079c531659141344cd1fd0a4f28419497f9722a3daafe3b4186f6b6457e090600090a35050565b6001600160a01b0382166111cc57604051630b61174360e31b81526001600160a01b03831660048201526024016107b3565b6001600160a01b03838116600081815260056020908152604080832094871680845294825291829020805460ff191686151590811790915591519182527f17307eab39ab6107e8899845ad3d59bd9653f200f220920489ca2b5937696c31910160405180910390a3505050565b6001600160a01b0383163b1561135d57604051630a85bd0160e11b81526001600160a01b0384169063150b7a029061127b9088908890879087906004016122cd565b6020604051808303816000875af19250505080156112b6575060408051601f3d908101601f191682019092526112b39181019061230a565b60015b61131f573d8080156112e4576040519150601f19603f3d011682016040523d82523d6000602084013e6112e9565b606091505b50805160000361131757604051633250574960e11b81526001600160a01b03851660048201526024016107b3565b805160208201fd5b6001600160e01b03198116630a85bd0160e11b1461135b57604051633250574960e11b81526001600160a01b03851660048201526024016107b3565b505b5050505050565b606061136f8261101b565b5060008281526006602052604081208054611389906120fc565b80601f01602080910402602001604051908101604052809291908181526020018280546113b5906120fc565b80156114025780601f106113d757610100808354040283529160200191611402565b820191906000526020600020905b8154815290600101906020018083116113e557829003601f168201915b505050505090506000611413611670565b90508051600003611425575092915050565b81511561145757808260405160200161143f929190612327565b60405160208183030381529060405292505050919050565b61109b8461167f565b60006001600160e01b03198216632483248360e11b148061068d575061068d826116e7565b808061149957506001600160a01b03821615155b1561155b5760006114a98461101b565b90506001600160a01b038316158015906114d55750826001600160a01b0316816001600160a01b031614155b80156114e857506114e68184610ce2565b155b156115115760405163a9fbf51f60e01b81526001600160a01b03841660048201526024016107b3565b81156115595783856001600160a01b0316826001600160a01b03167f8c5be1e5ebec7d5bd14f71427d1e84f3dd0314c0f7b2291e5b200ac8c7c3b92560405160405180910390a45b505b5050600090815260046020526040902080546001600160a01b0319166001600160a01b0392909216919091179055565b600080611599858585611737565b90506001600160a01b0381166115f6576115f184600980546000838152600a60205260408120829055600182018355919091527f6e1540171b6c0c960b71a7020d9f60077f6af931a8bbf590da0223dacf75c7af0155565b611619565b846001600160a01b0316816001600160a01b031614611619576116198185611830565b6001600160a01b03851661163557611630846118b1565b61109b565b846001600160a01b0316816001600160a01b03161461109b5761109b8585611960565b61166283836119b0565b610a9e336000858585611239565b6060600f80546106a2906120fc565b606061168a8261101b565b506000611695611670565b905060008151116116b557604051806020016040528060008152506116e0565b806116bf84611a15565b6040516020016116d0929190612327565b6040516020818303038152906040525b9392505050565b60006001600160e01b031982166380ac58cd60e01b148061171857506001600160e01b03198216635b5e139f60e01b145b8061068d57506301ffc9a760e01b6001600160e01b031983161461068d565b6000828152600260205260408120546001600160a01b039081169083161561176457611764818486611aa8565b6001600160a01b038116156117a257611781600085600080611485565b6001600160a01b038116600090815260036020526040902080546000190190555b6001600160a01b038516156117d1576001600160a01b0385166000908152600360205260409020805460010190555b60008481526002602052604080822080546001600160a01b0319166001600160a01b0389811691821790925591518793918516917fddf252ad1be2c89b69c2b068fc378daa952ba7f163c4a11628f55a4df523b3ef91a4949350505050565b600061183b83610c49565b6000838152600860209081526040808320546001600160a01b038816845260079092529091209192509081831461189257600083815260208281526040808320548584528184208190558352600890915290208290555b6000938452600860209081526040808620869055938552525081205550565b6009546000906118c390600190612356565b6000838152600a6020526040812054600980549394509092849081106118eb576118eb61219e565b90600052602060002001549050806009838154811061190c5761190c61219e565b6000918252602080832090910192909255828152600a9091526040808220849055858252812055600980548061194457611944612369565b6001900381819060005260206000200160009055905550505050565b6000600161196d84610c49565b6119779190612356565b6001600160a01b039093166000908152600760209081526040808320868452825280832085905593825260089052919091209190915550565b6001600160a01b0382166119da57604051633250574960e11b8152600060048201526024016107b3565b60006119e88383600061108e565b90506001600160a01b03811615610a9e576040516339e3563760e11b8152600060048201526024016107b3565b60606000611a2283611b0c565b600101905060008167ffffffffffffffff811115611a4257611a42611d9a565b6040519080825280601f01601f191660200182016040528015611a6c576020820181803683370190505b5090508181016020015b600019016f181899199a1a9b1b9c1cb0b131b232b360811b600a86061a8153600a8504945084611a7657509392505050565b611ab3838383611be4565b610a9e576001600160a01b038316611ae157604051637e27328960e01b8152600481018290526024016107b3565b60405163177e802f60e01b81526001600160a01b0383166004820152602481018290526044016107b3565b60008072184f03e93ff9f4daa797ed6e38ed64bf6a1f0160401b8310611b4b5772184f03e93ff9f4daa797ed6e38ed64bf6a1f0160401b830492506040015b6d04ee2d6d415b85acef81000000008310611b77576d04ee2d6d415b85acef8100000000830492506020015b662386f26fc100008310611b9557662386f26fc10000830492506010015b6305f5e1008310611bad576305f5e100830492506008015b6127108310611bc157612710830492506004015b60648310611bd3576064830492506002015b600a831061068d5760010192915050565b60006001600160a01b0383161580159061109b5750826001600160a01b0316846001600160a01b03161480611c1e5750611c1e8484610ce2565b8061109b5750506000908152600460205260409020546001600160a01b03908116911614919050565b6001600160e01b031981168114610fb657600080fd5b600060208284031215611c6f57600080fd5b81356116e081611c47565b60005b83811015611c95578181015183820152602001611c7d565b50506000910152565b60008151808452611cb6816020860160208601611c7a565b601f01601f19169290920160200192915050565b6020815260006116e06020830184611c9e565b600060208284031215611cef57600080fd5b5035919050565b80356001600160a01b0381168114611d0d57600080fd5b919050565b60008060408385031215611d2557600080fd5b611d2e83611cf6565b946020939093013593505050565b600080600060608486031215611d5157600080fd5b611d5a84611cf6565b9250611d6860208501611cf6565b9150604084013590509250925092565b60008060408385031215611d8b57600080fd5b50508035926020909101359150565b634e487b7160e01b600052604160045260246000fd5b604051601f8201601f1916810167ffffffffffffffff81118282101715611dd957611dd9611d9a565b604052919050565b600067ffffffffffffffff831115611dfb57611dfb611d9a565b611e0e601f8401601f1916602001611db0565b9050828152838383011115611e2257600080fd5b828260208301376000602084830101529392505050565b600082601f830112611e4a57600080fd5b6116e083833560208501611de1565b60008060408385031215611e6c57600080fd5b611e7583611cf6565b9150602083013567ffffffffffffffff811115611e9157600080fd5b611e9d85828601611e39565b9150509250929050565b600060208284031215611eb957600080fd5b813567ffffffffffffffff811115611ed057600080fd5b61109b84828501611e39565b600060208284031215611eee57600080fd5b6116e082611cf6565b60008060408385031215611f0a57600080fd5b611f1383611cf6565b915060208301358015158114611f2857600080fd5b809150509250929050565b60008060008060808587031215611f4957600080fd5b611f5285611cf6565b9350611f6060208601611cf6565b925060408501359150606085013567ffffffffffffffff811115611f8357600080fd5b8501601f81018713611f9457600080fd5b611fa387823560208401611de1565b91505092959194509250565b60008060408385031215611fc257600080fd5b611fcb83611cf6565b9150611fd960208401611cf6565b90509250929050565b60008060408385031215611ff557600080fd5b611ffe83611cf6565b915060208084013567ffffffffffffffff8082111561201c57600080fd5b818601915086601f83011261203057600080fd5b81358181111561204257612042611d9a565b8060051b612051858201611db0565b918252838101850191858101908a84111561206b57600080fd5b86860192505b838310156120a7578235858111156120895760008081fd5b6120978c89838a0101611e39565b8352509186019190860190612071565b809750505050505050509250929050565b6020808252825182820181905260009190848201906040850190845b818110156120f0578351835292840192918401916001016120d4565b50909695505050505050565b600181811c9082168061211057607f821691505b60208210810361213057634e487b7160e01b600052602260045260246000fd5b50919050565b634e487b7160e01b600052601160045260246000fd5b808202811582820484141761068d5761068d612136565b60008261218057634e487b7160e01b600052601260045260246000fd5b500490565b60006001820161219757612197612136565b5060010190565b634e487b7160e01b600052603260045260246000fd5b601f821115610a9e57600081815260208120601f850160051c810160208610156121db5750805b601f850160051c820191505b8181101561135b578281556001016121e7565b815167ffffffffffffffff81111561221457612214611d9a565b6122288161222284546120fc565b846121b4565b602080601f83116001811461225d57600084156122455750858301515b600019600386901b1c1916600185901b17855561135b565b600085815260208120601f198616915b8281101561228c5788860151825594840194600190910190840161226d565b50858210156122aa5787850151600019600388901b60f8161c191681555b5050505050600190811b01905550565b8082018082111561068d5761068d612136565b6001600160a01b038581168252841660208201526040810183905260806060820181905260009061230090830184611c9e565b9695505050505050565b60006020828403121561231c57600080fd5b81516116e081611c47565b60008351612339818460208801611c7a565b83519083019061234d818360208801611c7a565b01949350505050565b8181038181111561068d5761068d612136565b634e487b7160e01b600052603160045260246000fdfea2646970667358221220546c488f877c9e9cbd8c71aebeafd10cd3bce517958032d287c9ebdc6fb0a60c64736f6c63430008140033",
  "linkReferences": {},
  "deployedLinkReferences": {}
}